{
  "contractName": "Raffle",
  "abi": [
    {
      "inputs": [
        {
          "internalType": "address",
          "name": "vrfCoordinatorV2",
          "type": "address"
        },
        {
          "internalType": "uint256",
          "name": "entranceFee",
          "type": "uint256"
        },
        {
          "internalType": "bytes32",
          "name": "gasLane",
          "type": "bytes32"
        },
        {
          "internalType": "uint64",
          "name": "subscriptionId",
          "type": "uint64"
        },
        {
          "internalType": "uint32",
          "name": "callbackGasLimit",
          "type": "uint32"
        },
        {
          "internalType": "uint256",
          "name": "interval",
          "type": "uint256"
        }
      ],
      "stateMutability": "nonpayable",
      "type": "constructor"
    },
    {
      "inputs": [
        {
          "internalType": "address",
          "name": "have",
          "type": "address"
        },
        {
          "internalType": "address",
          "name": "want",
          "type": "address"
        }
      ],
      "name": "OnlyCoordinatorCanFulfill",
      "type": "error"
    },
    {
      "inputs": [],
      "name": "Raffle_NotOpen",
      "type": "error"
    },
    {
      "inputs": [],
      "name": "Raffle_TransferFailed",
      "type": "error"
    },
    {
      "inputs": [],
      "name": "Raffle__NotEnoughETHEntered",
      "type": "error"
    },
    {
      "inputs": [
        {
          "internalType": "uint256",
          "name": "currentBalance",
          "type": "uint256"
        },
        {
          "internalType": "uint256",
          "name": "numPlayers",
          "type": "uint256"
        },
        {
          "internalType": "uint256",
          "name": "raffleState",
          "type": "uint256"
        }
      ],
      "name": "Raffle__UpkeepNotNeeded",
      "type": "error"
    },
    {
      "anonymous": false,
      "inputs": [
        {
          "indexed": true,
          "internalType": "address",
          "name": "player",
          "type": "address"
        }
      ],
      "name": "RaffleEnter",
      "type": "event"
    },
    {
      "anonymous": false,
      "inputs": [
        {
          "indexed": true,
          "internalType": "uint256",
          "name": "requestId",
          "type": "uint256"
        }
      ],
      "name": "RequestedRaffleWinner",
      "type": "event"
    },
    {
      "anonymous": false,
      "inputs": [
        {
          "indexed": true,
          "internalType": "address",
          "name": "winner",
          "type": "address"
        }
      ],
      "name": "WinnerPicked",
      "type": "event"
    },
    {
      "inputs": [
        {
          "internalType": "uint256",
          "name": "requestId",
          "type": "uint256"
        },
        {
          "internalType": "uint256[]",
          "name": "randomWords",
          "type": "uint256[]"
        }
      ],
      "name": "rawFulfillRandomWords",
      "outputs": [],
      "stateMutability": "nonpayable",
      "type": "function"
    },
    {
      "inputs": [],
      "name": "enterRaffle",
      "outputs": [],
      "stateMutability": "payable",
      "type": "function",
      "payable": true
    },
    {
      "inputs": [
        {
          "internalType": "bytes",
          "name": "",
          "type": "bytes"
        }
      ],
      "name": "checkUpkeep",
      "outputs": [
        {
          "internalType": "bool",
          "name": "upkeepNeeded",
          "type": "bool"
        },
        {
          "internalType": "bytes",
          "name": "",
          "type": "bytes"
        }
      ],
      "stateMutability": "nonpayable",
      "type": "function"
    },
    {
      "inputs": [
        {
          "internalType": "bytes",
          "name": "",
          "type": "bytes"
        }
      ],
      "name": "performUpkeep",
      "outputs": [],
      "stateMutability": "nonpayable",
      "type": "function"
    },
    {
      "inputs": [],
      "name": "getEntranceFee",
      "outputs": [
        {
          "internalType": "uint256",
          "name": "",
          "type": "uint256"
        }
      ],
      "stateMutability": "view",
      "type": "function",
      "constant": true
    },
    {
      "inputs": [
        {
          "internalType": "uint256",
          "name": "index",
          "type": "uint256"
        }
      ],
      "name": "getPlayer",
      "outputs": [
        {
          "internalType": "address",
          "name": "",
          "type": "address"
        }
      ],
      "stateMutability": "view",
      "type": "function",
      "constant": true
    },
    {
      "inputs": [],
      "name": "getRecentWinner",
      "outputs": [
        {
          "internalType": "address",
          "name": "",
          "type": "address"
        }
      ],
      "stateMutability": "view",
      "type": "function",
      "constant": true
    },
    {
      "inputs": [],
      "name": "getRaffleState",
      "outputs": [
        {
          "internalType": "enum Raffle.RaffleState",
          "name": "",
          "type": "uint8"
        }
      ],
      "stateMutability": "view",
      "type": "function",
      "constant": true
    },
    {
      "inputs": [],
      "name": "getNumWords",
      "outputs": [
        {
          "internalType": "uint256",
          "name": "",
          "type": "uint256"
        }
      ],
      "stateMutability": "pure",
      "type": "function",
      "constant": true
    },
    {
      "inputs": [],
      "name": "getNumPlayers",
      "outputs": [
        {
          "internalType": "uint256",
          "name": "",
          "type": "uint256"
        }
      ],
      "stateMutability": "view",
      "type": "function",
      "constant": true
    },
    {
      "inputs": [],
      "name": "getLatestTimestamp",
      "outputs": [
        {
          "internalType": "uint256",
          "name": "",
          "type": "uint256"
        }
      ],
      "stateMutability": "view",
      "type": "function",
      "constant": true
    },
    {
      "inputs": [],
      "name": "getRequestConfirmations",
      "outputs": [
        {
          "internalType": "uint256",
          "name": "",
          "type": "uint256"
        }
      ],
      "stateMutability": "pure",
      "type": "function",
      "constant": true
    }
  ],
  "bytecode": "0x61016060405234801562000011575f80fd5b506040516200170038038062001700833981810160405281019062000037919062000281565b858073ffffffffffffffffffffffffffffffffffffffff1660808173ffffffffffffffffffffffffffffffffffffffff1681525050508460a081815250508573ffffffffffffffffffffffffffffffffffffffff166101408173ffffffffffffffffffffffffffffffffffffffff16815250508360c081815250508267ffffffffffffffff1660e08167ffffffffffffffff16815250508163ffffffff166101008163ffffffff16815250505f600260016101000a81548160ff021916908360018111156200010b576200010a62000319565b5b02179055508061012081815250504260018190555050505050505062000346565b5f80fd5b5f73ffffffffffffffffffffffffffffffffffffffff82169050919050565b5f6200015b8262000130565b9050919050565b6200016d816200014f565b811462000178575f80fd5b50565b5f815190506200018b8162000162565b92915050565b5f819050919050565b620001a58162000191565b8114620001b0575f80fd5b50565b5f81519050620001c3816200019a565b92915050565b5f819050919050565b620001dd81620001c9565b8114620001e8575f80fd5b50565b5f81519050620001fb81620001d2565b92915050565b5f67ffffffffffffffff82169050919050565b6200021f8162000201565b81146200022a575f80fd5b50565b5f815190506200023d8162000214565b92915050565b5f63ffffffff82169050919050565b6200025d8162000243565b811462000268575f80fd5b50565b5f815190506200027b8162000252565b92915050565b5f805f805f8060c087890312156200029e576200029d6200012c565b5b5f620002ad89828a016200017b565b9650506020620002c089828a01620001b3565b9550506040620002d389828a01620001eb565b9450506060620002e689828a016200022d565b9350506080620002f989828a016200026b565b92505060a06200030c89828a01620001b3565b9150509295509295509295565b7f4e487b71000000000000000000000000000000000000000000000000000000005f52602160045260245ffd5b60805160a05160c05160e05161010051610120516101405161135a620003a65f395f6105be01525f61077f01525f61063e01525f61061b01525f6105fa01525f81816102a601526103a201525f81816102e20152610336015261135a5ff3fe6080604052600436106100a6575f3560e01c806353a2c19a1161006357806353a2c19a1461018257806355c9e926146101ac5780635f1b0fd8146101d65780636e04ff0d14610200578063e55ae4e81461023d578063f43b52cb14610279576100a6565b806309bc33a7146100aa578063115cbaf5146100d45780631fe543e3146100fe5780632cfcc539146101265780634585e33b14610130578063473f1ddc14610158575b5f80fd5b3480156100b5575f80fd5b506100be6102a3565b6040516100cb9190610b2f565b60405180910390f35b3480156100df575f80fd5b506100e86102ca565b6040516100f59190610bbb565b60405180910390f35b348015610109575f80fd5b50610124600480360381019061011f9190610d5f565b6102e0565b005b61012e6103a0565b005b34801561013b575f80fd5b5061015660048036038101906101519190610e12565b61050a565b005b348015610163575f80fd5b5061016c6106f4565b6040516101799190610e9c565b60405180910390f35b34801561018d575f80fd5b5061019661071b565b6040516101a39190610b2f565b60405180910390f35b3480156101b7575f80fd5b506101c0610729565b6040516101cd9190610b2f565b60405180910390f35b3480156101e1575f80fd5b506101ea610734565b6040516101f79190610b2f565b60405180910390f35b34801561020b575f80fd5b5061022660048036038101906102219190610f65565b610740565b604051610234929190611040565b60405180910390f35b348015610248575f80fd5b50610263600480360381019061025e919061106e565b6107e6565b6040516102709190610e9c565b60405180910390f35b348015610284575f80fd5b5061028d610829565b60405161029a9190610b2f565b60405180910390f35b5f7f0000000000000000000000000000000000000000000000000000000000000000905090565b5f600260019054906101000a900460ff16905090565b7f000000000000000000000000000000000000000000000000000000000000000073ffffffffffffffffffffffffffffffffffffffff163373ffffffffffffffffffffffffffffffffffffffff161461039257337f00000000000000000000000000000000000000000000000000000000000000006040517f1cf993f4000000000000000000000000000000000000000000000000000000008152600401610389929190611099565b60405180910390fd5b61039c8282610832565b5050565b7f00000000000000000000000000000000000000000000000000000000000000003410156103fa576040517fbd4e069500000000000000000000000000000000000000000000000000000000815260040160405180910390fd5b5f600181111561040d5761040c610b48565b5b600260019054906101000a900460ff16600181111561042f5761042e610b48565b5b14610466576040517fd6e19a8d00000000000000000000000000000000000000000000000000000000815260040160405180910390fd5b5f33908060018154018082558091505060019003905f5260205f20015f9091909190916101000a81548173ffffffffffffffffffffffffffffffffffffffff021916908373ffffffffffffffffffffffffffffffffffffffff1602179055503373ffffffffffffffffffffffffffffffffffffffff167f0805e1d667bddb8a95f0f09880cf94f403fb596ce79928d9f29b74203ba284d460405160405180910390a2565b5f61052260405180602001604052805f815250610740565b5090508061059057475f80549050600260019054906101000a900460ff16600181111561055257610551610b48565b5b6040517f584327aa000000000000000000000000000000000000000000000000000000008152600401610587939291906110c0565b60405180910390fd5b6001600260016101000a81548160ff021916908360018111156105b6576105b5610b48565b5b02179055505f7f000000000000000000000000000000000000000000000000000000000000000073ffffffffffffffffffffffffffffffffffffffff16635d3b1d307f00000000000000000000000000000000000000000000000000000000000000007f000000000000000000000000000000000000000000000000000000000000000060037f000000000000000000000000000000000000000000000000000000000000000060016040518663ffffffff1660e01b815260040161067f959493929190611169565b6020604051808303815f875af115801561069b573d5f803e3d5ffd5b505050506040513d601f19601f820116820180604052508101906106bf91906111ce565b9050807fcd6e45c8998311cab7e9d4385596cac867e20a0587194b954fa3a731c93ce78b60405160405180910390a250505050565b5f60028054906101000a900473ffffffffffffffffffffffffffffffffffffffff16905090565b5f600163ffffffff16905090565b5f8080549050905090565b5f600361ffff16905090565b5f60605f600260019054906101000a900460ff16600181111561076657610765610b48565b5b5f600181111561077957610778610b48565b5b1490505f7f0000000000000000000000000000000000000000000000000000000000000000600154426107ac9190611226565b1190505f805f805490501190505f80471190508380156107c95750825b80156107d25750815b80156107db5750805b955050505050915091565b5f8082815481106107fa576107f9611259565b5b905f5260205f20015f9054906101000a900473ffffffffffffffffffffffffffffffffffffffff169050919050565b5f600154905090565b5f8080549050825f8151811061084b5761084a611259565b5b602002602001015161085d91906112b3565b90505f80828154811061087357610872611259565b5b905f5260205f20015f9054906101000a900473ffffffffffffffffffffffffffffffffffffffff169050806002806101000a81548173ffffffffffffffffffffffffffffffffffffffff021916908373ffffffffffffffffffffffffffffffffffffffff1602179055505f600260016101000a81548160ff0219169083600181111561090257610901610b48565b5b02179055505f67ffffffffffffffff81111561092157610920610c23565b5b60405190808252806020026020018201604052801561094f5781602001602082028036833780820191505090505b505f9080519060200190610964929190610a75565b50426001819055505f8173ffffffffffffffffffffffffffffffffffffffff164760405161099190611310565b5f6040518083038185875af1925050503d805f81146109cb576040519150601f19603f3d011682016040523d82523d5f602084013e6109d0565b606091505b5050905080610a0b576040517fba31c4f300000000000000000000000000000000000000000000000000000000815260040160405180910390fd5b60028054906101000a900473ffffffffffffffffffffffffffffffffffffffff1673ffffffffffffffffffffffffffffffffffffffff167f5b690ec4a06fe979403046eaeea5b3ce38524683c3001f662c8b5a829632f7df60405160405180910390a25050505050565b828054828255905f5260205f20908101928215610aeb579160200282015b82811115610aea578251825f6101000a81548173ffffffffffffffffffffffffffffffffffffffff021916908373ffffffffffffffffffffffffffffffffffffffff16021790555091602001919060010190610a93565b5b509050610af89190610afc565b5090565b5b80821115610b13575f815f905550600101610afd565b5090565b5f819050919050565b610b2981610b17565b82525050565b5f602082019050610b425f830184610b20565b92915050565b7f4e487b71000000000000000000000000000000000000000000000000000000005f52602160045260245ffd5b60028110610b8657610b85610b48565b5b50565b5f819050610b9682610b75565b919050565b5f610ba582610b89565b9050919050565b610bb581610b9b565b82525050565b5f602082019050610bce5f830184610bac565b92915050565b5f604051905090565b5f80fd5b5f80fd5b610bee81610b17565b8114610bf8575f80fd5b50565b5f81359050610c0981610be5565b92915050565b5f80fd5b5f601f19601f8301169050919050565b7f4e487b71000000000000000000000000000000000000000000000000000000005f52604160045260245ffd5b610c5982610c13565b810181811067ffffffffffffffff82111715610c7857610c77610c23565b5b80604052505050565b5f610c8a610bd4565b9050610c968282610c50565b919050565b5f67ffffffffffffffff821115610cb557610cb4610c23565b5b602082029050602081019050919050565b5f80fd5b5f610cdc610cd784610c9b565b610c81565b90508083825260208201905060208402830185811115610cff57610cfe610cc6565b5b835b81811015610d285780610d148882610bfb565b845260208401935050602081019050610d01565b5050509392505050565b5f82601f830112610d4657610d45610c0f565b5b8135610d56848260208601610cca565b91505092915050565b5f8060408385031215610d7557610d74610bdd565b5b5f610d8285828601610bfb565b925050602083013567ffffffffffffffff811115610da357610da2610be1565b5b610daf85828601610d32565b9150509250929050565b5f80fd5b5f8083601f840112610dd257610dd1610c0f565b5b8235905067ffffffffffffffff811115610def57610dee610db9565b5b602083019150836001820283011115610e0b57610e0a610cc6565b5b9250929050565b5f8060208385031215610e2857610e27610bdd565b5b5f83013567ffffffffffffffff811115610e4557610e44610be1565b5b610e5185828601610dbd565b92509250509250929050565b5f73ffffffffffffffffffffffffffffffffffffffff82169050919050565b5f610e8682610e5d565b9050919050565b610e9681610e7c565b82525050565b5f602082019050610eaf5f830184610e8d565b92915050565b5f80fd5b5f67ffffffffffffffff821115610ed357610ed2610c23565b5b610edc82610c13565b9050602081019050919050565b828183375f83830152505050565b5f610f09610f0484610eb9565b610c81565b905082815260208101848484011115610f2557610f24610eb5565b5b610f30848285610ee9565b509392505050565b5f82601f830112610f4c57610f4b610c0f565b5b8135610f5c848260208601610ef7565b91505092915050565b5f60208284031215610f7a57610f79610bdd565b5b5f82013567ffffffffffffffff811115610f9757610f96610be1565b5b610fa384828501610f38565b91505092915050565b5f8115159050919050565b610fc081610fac565b82525050565b5f81519050919050565b5f82825260208201905092915050565b5f5b83811015610ffd578082015181840152602081019050610fe2565b5f8484015250505050565b5f61101282610fc6565b61101c8185610fd0565b935061102c818560208601610fe0565b61103581610c13565b840191505092915050565b5f6040820190506110535f830185610fb7565b81810360208301526110658184611008565b90509392505050565b5f6020828403121561108357611082610bdd565b5b5f61109084828501610bfb565b91505092915050565b5f6040820190506110ac5f830185610e8d565b6110b96020830184610e8d565b9392505050565b5f6060820190506110d35f830186610b20565b6110e06020830185610b20565b6110ed6040830184610b20565b949350505050565b5f819050919050565b611107816110f5565b82525050565b5f67ffffffffffffffff82169050919050565b6111298161110d565b82525050565b5f61ffff82169050919050565b6111458161112f565b82525050565b5f63ffffffff82169050919050565b6111638161114b565b82525050565b5f60a08201905061117c5f8301886110fe565b6111896020830187611120565b611196604083018661113c565b6111a3606083018561115a565b6111b0608083018461115a565b9695505050505050565b5f815190506111c881610be5565b92915050565b5f602082840312156111e3576111e2610bdd565b5b5f6111f0848285016111ba565b91505092915050565b7f4e487b71000000000000000000000000000000000000000000000000000000005f52601160045260245ffd5b5f61123082610b17565b915061123b83610b17565b9250828203905081811115611253576112526111f9565b5b92915050565b7f4e487b71000000000000000000000000000000000000000000000000000000005f52603260045260245ffd5b7f4e487b71000000000000000000000000000000000000000000000000000000005f52601260045260245ffd5b5f6112bd82610b17565b91506112c883610b17565b9250826112d8576112d7611286565b5b828206905092915050565b5f81905092915050565b50565b5f6112fb5f836112e3565b9150611306826112ed565b5f82019050919050565b5f61131a826112f0565b915081905091905056fea2646970667358221220edfa6ceec8d2fb1ef9eb15af80b7775b56ada7603b904d9d83b50f976d72dcfa64736f6c63430008150033",
  "immutableReferences": {
    "229": [
      {
        "length": 32,
        "start": 738
      },
      {
        "length": 32,
        "start": 822
      }
    ],
    "1332": [
      {
        "length": 32,
        "start": 678
      },
      {
        "length": 32,
        "start": 930
      }
    ],
    "1337": [
      {
        "length": 32,
        "start": 1530
      }
    ],
    "1339": [
      {
        "length": 32,
        "start": 1563
      }
    ],
    "1341": [
      {
        "length": 32,
        "start": 1598
      }
    ],
    "1343": [
      {
        "length": 32,
        "start": 1919
      }
    ],
    "1350": [
      {
        "length": 32,
        "start": 1470
      }
    ]
  },
  "source": "// SPDX-License-Identifier: MIT\r\n\r\n// Info on VRF: https://docs.chain.link/vrf/v2-5/getting-started\r\n// Info on Keepers: https://docs.chain.link/chainlink-automation/guides/compatible-contracts\r\n\r\npragma solidity ^0.8.7;\r\n\r\nerror Raffle__NotEnoughETHEntered();\r\nerror Raffle_TransferFailed();\r\nerror Raffle_NotOpen();\r\nerror Raffle__UpkeepNotNeeded(uint256 currentBalance, uint256 numPlayers, uint256 raffleState);\r\n\r\n/** @title A sample lottery contract\r\n  * @author Christian Mariscal\r\n  * @notice This contract creates an untamperable decentralized smart contract.\r\n  * @dev Implements Chainlink VRF v2 and Chainlink Keepers\r\n */\r\n\r\nimport \"@chainlink/contracts/src/v0.8/vrf/VRFConsumerBaseV2.sol\";\r\nimport \"@chainlink/contracts/src/v0.8/vrf/interfaces/VRFCoordinatorV2Interface.sol\";\r\nimport \"@chainlink/contracts/src/v0.8/automation/interfaces/AutomationCompatibleInterface.sol\";\r\n\r\ncontract Raffle is VRFConsumerBaseV2, AutomationCompatibleInterface{\r\n    /* Type declarations */\r\n    enum RaffleState{OPEN,CALCULATING}\r\n\r\n    /* State variables*/\r\n    uint256 private immutable i_entranceFee; //storage variable\r\n    address payable[] private s_players;\r\n    bytes32 private immutable i_gasLane;\r\n    uint64 private immutable i_subscriptionId;\r\n    uint32 private immutable i_callbackGasLimit; \r\n    uint256 private immutable i_interval;\r\n    uint256 private s_lastTimeStamp;\r\n    bool private s_isOpen;\r\n    VRFCoordinatorV2Interface private immutable i_vrfCoordinator;\r\n    RaffleState private s_raffleState;\r\n\r\n    /* constants */\r\n    uint32 private constant NUM_WORDS = 1;\r\n    uint16 private constant REQUEST_CONFIRMATIONS = 3;\r\n    \r\n    // Lottery variables\r\n    address private s_recentWinner;\r\n    \r\n    /*Events*/\r\n    event RaffleEnter(address indexed player);\r\n    event RequestedRaffleWinner(uint256 indexed requestId);\r\n    event WinnerPicked(address indexed winner);\r\n    // indexed variables within a contract allow to easily search in the smart contract logs later. \r\n    // maximum of 3 indexed vars. rest of them go to the logs too, but need ABI to decode easily.\r\n    // events are gas efficient as smart contract can not read from the logs where events are stored\r\n   \r\n    constructor(address vrfCoordinatorV2, uint256 entranceFee, bytes32 gasLane, uint64 subscriptionId, \r\n    uint32 callbackGasLimit, uint256 interval) VRFConsumerBaseV2(vrfCoordinatorV2){\r\n        i_entranceFee = entranceFee;\r\n        // i_vrfCoordinator forwards to a contract(vrfCoordinatorV2) that implements the functions of the interface. \r\n        // It makes easier to know which functions are available for calling (they're the ones defined in the interface)\r\n        // Interfaces are the scaffolding for inherited contracts. You can define a new contract implementing the functions\r\n        // of the interface, or you can forward to an existing contract that inherits the interface.\r\n        i_vrfCoordinator =  VRFCoordinatorV2Interface(vrfCoordinatorV2);\r\n        i_gasLane = gasLane;\r\n        i_subscriptionId = subscriptionId;\r\n        i_callbackGasLimit = callbackGasLimit;\r\n        s_raffleState = RaffleState.OPEN;\r\n        i_interval = interval;\r\n        s_lastTimeStamp = block.timestamp;\r\n    }\r\n\r\n    /* Functions */\r\n    function enterRaffle() payable public{\r\n        // require(msg.value > i_entranceFee, \"Not enough ETH!\") --> uses more GAS \r\n        if(msg.value < i_entranceFee){revert Raffle__NotEnoughETHEntered();} // this approach is more gas efficient\r\n        if (s_raffleState != RaffleState.OPEN){revert Raffle_NotOpen();}\r\n        s_players.push(payable(msg.sender));\r\n        emit RaffleEnter(msg.sender);\r\n    }\r\n\r\n    /**\r\n    @dev This is the function that the Chainlink Keeper nodes call. They look for the 'upkeepNeeded' to return true\r\n     */\r\n\r\n    /*\r\n    1. our time interval should pass\r\n    2. lottery should have at least one player\r\n    3. our subscription is funded with LINK\r\n    4. lottery should be in 'open' state\r\n    */\r\n\r\n    function checkUpkeep(bytes memory /*checkData*/) public override returns(bool upkeepNeeded, bytes memory /*performData*/){\r\n        bool isOpen = (RaffleState.OPEN == s_raffleState); \r\n        bool timePassed = ((block.timestamp - s_lastTimeStamp) > i_interval);\r\n        bool hasPlayers = (s_players.length > 0);\r\n        bool hasBalance = address(this).balance > 0;\r\n        upkeepNeeded = (isOpen && timePassed && hasPlayers && hasBalance) ; \r\n    }\r\n     \r\n\r\n    function performUpkeep(bytes calldata /*performData*/) external{\r\n        (bool upkeepNeeded,) = checkUpkeep(\"\");\r\n        if( !upkeepNeeded ){ \r\n            revert Raffle__UpkeepNotNeeded(\r\n            address(this).balance, \r\n            s_players.length, \r\n            uint256(s_raffleState)\r\n            );\r\n            }\r\n            s_raffleState = RaffleState.CALCULATING;\r\n            uint256 requestId = i_vrfCoordinator.requestRandomWords(\r\n            i_gasLane, \r\n            i_subscriptionId, \r\n            REQUEST_CONFIRMATIONS, \r\n            i_callbackGasLimit,\r\n            NUM_WORDS\r\n        );\r\n        emit RequestedRaffleWinner(requestId);\r\n    }\r\n    function fulfillRandomWords(uint256 /*requestId*/, uint256[] memory randomWords) internal override{\r\n        uint256 indexOfWinner = randomWords[0] % s_players.length;\r\n        address payable recentWinner = s_players[indexOfWinner];\r\n        s_recentWinner = recentWinner;\r\n\r\n        s_raffleState = RaffleState.OPEN;\r\n        s_players = new address payable[](0);\r\n        s_lastTimeStamp = block.timestamp;\r\n        (bool success, ) = recentWinner.call{value: address(this).balance}(\"\");\r\n        if(!success){\r\n            revert Raffle_TransferFailed();\r\n        }\r\n        emit WinnerPicked(s_recentWinner);\r\n        \r\n\r\n    }\r\n    function getEntranceFee() public view returns (uint256){\r\n        return i_entranceFee;\r\n    }\r\n\r\n    function getPlayer(uint256 index) public view returns(address){\r\n        return s_players[index];\r\n    }\r\n\r\n    function getRecentWinner() public view returns(address){\r\n        return s_recentWinner;\r\n    }\r\n\r\n    function getRaffleState() public view returns(RaffleState){\r\n        return s_raffleState;\r\n    }\r\n\r\n    function getNumWords() public pure returns(uint256){\r\n        return NUM_WORDS;\r\n    }\r\n\r\n    function getNumPlayers() public view returns(uint256){\r\n        return s_players.length;\r\n    }\r\n\r\n    function getLatestTimestamp() public view returns(uint256){\r\n        return s_lastTimeStamp;\r\n    }\r\n\r\n    function getRequestConfirmations() public pure returns(uint256){\r\n        return REQUEST_CONFIRMATIONS;\r\n    }\r\n\r\n\r\n}",
  "sourcePath": "C:\\Users\\Christian Mariscal\\blockchain\\lotteryDapp\\contracts\\Raffle.sol",
  "compiler": {
    "name": "solc",
    "version": "0.8.21+commit.d9974bed.Emscripten.clang"
  },
  "schemaVersion": "3.4.16",
  "updatedAt": "2024-06-03T20:01:22.152Z",
  "networkType": "ethereum",
  "devdoc": {
    "kind": "dev",
    "methods": {
      "checkUpkeep(bytes)": {
        "details": "This is the function that the Chainlink Keeper nodes call. They look for the 'upkeepNeeded' to return true"
      }
    },
    "version": 1
  },
  "userdoc": {
    "kind": "user",
    "methods": {},
    "version": 1
  }
}