{
  "contractName": "VRFCoordinatorV2Mock",
  "abi": [
    {
      "inputs": [
        {
          "internalType": "uint96",
          "name": "_baseFee",
          "type": "uint96"
        },
        {
          "internalType": "uint96",
          "name": "_gasPriceLink",
          "type": "uint96"
        }
      ],
      "stateMutability": "nonpayable",
      "type": "constructor"
    },
    {
      "inputs": [],
      "name": "InsufficientBalance",
      "type": "error"
    },
    {
      "inputs": [],
      "name": "InvalidConsumer",
      "type": "error"
    },
    {
      "inputs": [],
      "name": "InvalidRandomWords",
      "type": "error"
    },
    {
      "inputs": [],
      "name": "InvalidSubscription",
      "type": "error"
    },
    {
      "inputs": [
        {
          "internalType": "address",
          "name": "owner",
          "type": "address"
        }
      ],
      "name": "MustBeSubOwner",
      "type": "error"
    },
    {
      "inputs": [],
      "name": "Reentrant",
      "type": "error"
    },
    {
      "inputs": [],
      "name": "TooManyConsumers",
      "type": "error"
    },
    {
      "anonymous": false,
      "inputs": [],
      "name": "ConfigSet",
      "type": "event"
    },
    {
      "anonymous": false,
      "inputs": [
        {
          "indexed": true,
          "internalType": "uint64",
          "name": "subId",
          "type": "uint64"
        },
        {
          "indexed": false,
          "internalType": "address",
          "name": "consumer",
          "type": "address"
        }
      ],
      "name": "ConsumerAdded",
      "type": "event"
    },
    {
      "anonymous": false,
      "inputs": [
        {
          "indexed": true,
          "internalType": "uint64",
          "name": "subId",
          "type": "uint64"
        },
        {
          "indexed": false,
          "internalType": "address",
          "name": "consumer",
          "type": "address"
        }
      ],
      "name": "ConsumerRemoved",
      "type": "event"
    },
    {
      "anonymous": false,
      "inputs": [
        {
          "indexed": true,
          "internalType": "address",
          "name": "from",
          "type": "address"
        },
        {
          "indexed": true,
          "internalType": "address",
          "name": "to",
          "type": "address"
        }
      ],
      "name": "OwnershipTransferRequested",
      "type": "event"
    },
    {
      "anonymous": false,
      "inputs": [
        {
          "indexed": true,
          "internalType": "address",
          "name": "from",
          "type": "address"
        },
        {
          "indexed": true,
          "internalType": "address",
          "name": "to",
          "type": "address"
        }
      ],
      "name": "OwnershipTransferred",
      "type": "event"
    },
    {
      "anonymous": false,
      "inputs": [
        {
          "indexed": true,
          "internalType": "uint256",
          "name": "requestId",
          "type": "uint256"
        },
        {
          "indexed": false,
          "internalType": "uint256",
          "name": "outputSeed",
          "type": "uint256"
        },
        {
          "indexed": false,
          "internalType": "uint96",
          "name": "payment",
          "type": "uint96"
        },
        {
          "indexed": false,
          "internalType": "bool",
          "name": "success",
          "type": "bool"
        }
      ],
      "name": "RandomWordsFulfilled",
      "type": "event"
    },
    {
      "anonymous": false,
      "inputs": [
        {
          "indexed": true,
          "internalType": "bytes32",
          "name": "keyHash",
          "type": "bytes32"
        },
        {
          "indexed": false,
          "internalType": "uint256",
          "name": "requestId",
          "type": "uint256"
        },
        {
          "indexed": false,
          "internalType": "uint256",
          "name": "preSeed",
          "type": "uint256"
        },
        {
          "indexed": true,
          "internalType": "uint64",
          "name": "subId",
          "type": "uint64"
        },
        {
          "indexed": false,
          "internalType": "uint16",
          "name": "minimumRequestConfirmations",
          "type": "uint16"
        },
        {
          "indexed": false,
          "internalType": "uint32",
          "name": "callbackGasLimit",
          "type": "uint32"
        },
        {
          "indexed": false,
          "internalType": "uint32",
          "name": "numWords",
          "type": "uint32"
        },
        {
          "indexed": true,
          "internalType": "address",
          "name": "sender",
          "type": "address"
        }
      ],
      "name": "RandomWordsRequested",
      "type": "event"
    },
    {
      "anonymous": false,
      "inputs": [
        {
          "indexed": true,
          "internalType": "uint64",
          "name": "subId",
          "type": "uint64"
        },
        {
          "indexed": false,
          "internalType": "address",
          "name": "to",
          "type": "address"
        },
        {
          "indexed": false,
          "internalType": "uint256",
          "name": "amount",
          "type": "uint256"
        }
      ],
      "name": "SubscriptionCanceled",
      "type": "event"
    },
    {
      "anonymous": false,
      "inputs": [
        {
          "indexed": true,
          "internalType": "uint64",
          "name": "subId",
          "type": "uint64"
        },
        {
          "indexed": false,
          "internalType": "address",
          "name": "owner",
          "type": "address"
        }
      ],
      "name": "SubscriptionCreated",
      "type": "event"
    },
    {
      "anonymous": false,
      "inputs": [
        {
          "indexed": true,
          "internalType": "uint64",
          "name": "subId",
          "type": "uint64"
        },
        {
          "indexed": false,
          "internalType": "uint256",
          "name": "oldBalance",
          "type": "uint256"
        },
        {
          "indexed": false,
          "internalType": "uint256",
          "name": "newBalance",
          "type": "uint256"
        }
      ],
      "name": "SubscriptionFunded",
      "type": "event"
    },
    {
      "inputs": [],
      "name": "BASE_FEE",
      "outputs": [
        {
          "internalType": "uint96",
          "name": "",
          "type": "uint96"
        }
      ],
      "stateMutability": "view",
      "type": "function",
      "constant": true
    },
    {
      "inputs": [],
      "name": "GAS_PRICE_LINK",
      "outputs": [
        {
          "internalType": "uint96",
          "name": "",
          "type": "uint96"
        }
      ],
      "stateMutability": "view",
      "type": "function",
      "constant": true
    },
    {
      "inputs": [],
      "name": "MAX_CONSUMERS",
      "outputs": [
        {
          "internalType": "uint16",
          "name": "",
          "type": "uint16"
        }
      ],
      "stateMutability": "view",
      "type": "function",
      "constant": true
    },
    {
      "inputs": [],
      "name": "acceptOwnership",
      "outputs": [],
      "stateMutability": "nonpayable",
      "type": "function"
    },
    {
      "inputs": [],
      "name": "owner",
      "outputs": [
        {
          "internalType": "address",
          "name": "",
          "type": "address"
        }
      ],
      "stateMutability": "view",
      "type": "function",
      "constant": true
    },
    {
      "inputs": [
        {
          "internalType": "address",
          "name": "to",
          "type": "address"
        }
      ],
      "name": "transferOwnership",
      "outputs": [],
      "stateMutability": "nonpayable",
      "type": "function"
    },
    {
      "inputs": [],
      "name": "setConfig",
      "outputs": [],
      "stateMutability": "nonpayable",
      "type": "function"
    },
    {
      "inputs": [
        {
          "internalType": "uint64",
          "name": "_subId",
          "type": "uint64"
        },
        {
          "internalType": "address",
          "name": "_consumer",
          "type": "address"
        }
      ],
      "name": "consumerIsAdded",
      "outputs": [
        {
          "internalType": "bool",
          "name": "",
          "type": "bool"
        }
      ],
      "stateMutability": "view",
      "type": "function",
      "constant": true
    },
    {
      "inputs": [
        {
          "internalType": "uint256",
          "name": "_requestId",
          "type": "uint256"
        },
        {
          "internalType": "address",
          "name": "_consumer",
          "type": "address"
        }
      ],
      "name": "fulfillRandomWords",
      "outputs": [],
      "stateMutability": "nonpayable",
      "type": "function"
    },
    {
      "inputs": [
        {
          "internalType": "uint256",
          "name": "_requestId",
          "type": "uint256"
        },
        {
          "internalType": "address",
          "name": "_consumer",
          "type": "address"
        },
        {
          "internalType": "uint256[]",
          "name": "_words",
          "type": "uint256[]"
        }
      ],
      "name": "fulfillRandomWordsWithOverride",
      "outputs": [],
      "stateMutability": "nonpayable",
      "type": "function"
    },
    {
      "inputs": [
        {
          "internalType": "uint64",
          "name": "_subId",
          "type": "uint64"
        },
        {
          "internalType": "uint96",
          "name": "_amount",
          "type": "uint96"
        }
      ],
      "name": "fundSubscription",
      "outputs": [],
      "stateMutability": "nonpayable",
      "type": "function"
    },
    {
      "inputs": [
        {
          "internalType": "bytes32",
          "name": "_keyHash",
          "type": "bytes32"
        },
        {
          "internalType": "uint64",
          "name": "_subId",
          "type": "uint64"
        },
        {
          "internalType": "uint16",
          "name": "_minimumRequestConfirmations",
          "type": "uint16"
        },
        {
          "internalType": "uint32",
          "name": "_callbackGasLimit",
          "type": "uint32"
        },
        {
          "internalType": "uint32",
          "name": "_numWords",
          "type": "uint32"
        }
      ],
      "name": "requestRandomWords",
      "outputs": [
        {
          "internalType": "uint256",
          "name": "",
          "type": "uint256"
        }
      ],
      "stateMutability": "nonpayable",
      "type": "function"
    },
    {
      "inputs": [],
      "name": "createSubscription",
      "outputs": [
        {
          "internalType": "uint64",
          "name": "_subId",
          "type": "uint64"
        }
      ],
      "stateMutability": "nonpayable",
      "type": "function"
    },
    {
      "inputs": [
        {
          "internalType": "uint64",
          "name": "_subId",
          "type": "uint64"
        }
      ],
      "name": "getSubscription",
      "outputs": [
        {
          "internalType": "uint96",
          "name": "balance",
          "type": "uint96"
        },
        {
          "internalType": "uint64",
          "name": "reqCount",
          "type": "uint64"
        },
        {
          "internalType": "address",
          "name": "owner",
          "type": "address"
        },
        {
          "internalType": "address[]",
          "name": "consumers",
          "type": "address[]"
        }
      ],
      "stateMutability": "view",
      "type": "function",
      "constant": true
    },
    {
      "inputs": [
        {
          "internalType": "uint64",
          "name": "_subId",
          "type": "uint64"
        },
        {
          "internalType": "address",
          "name": "_to",
          "type": "address"
        }
      ],
      "name": "cancelSubscription",
      "outputs": [],
      "stateMutability": "nonpayable",
      "type": "function"
    },
    {
      "inputs": [],
      "name": "getRequestConfig",
      "outputs": [
        {
          "internalType": "uint16",
          "name": "",
          "type": "uint16"
        },
        {
          "internalType": "uint32",
          "name": "",
          "type": "uint32"
        },
        {
          "internalType": "bytes32[]",
          "name": "",
          "type": "bytes32[]"
        }
      ],
      "stateMutability": "pure",
      "type": "function",
      "constant": true
    },
    {
      "inputs": [
        {
          "internalType": "uint64",
          "name": "_subId",
          "type": "uint64"
        },
        {
          "internalType": "address",
          "name": "_consumer",
          "type": "address"
        }
      ],
      "name": "addConsumer",
      "outputs": [],
      "stateMutability": "nonpayable",
      "type": "function"
    },
    {
      "inputs": [
        {
          "internalType": "uint64",
          "name": "_subId",
          "type": "uint64"
        },
        {
          "internalType": "address",
          "name": "_consumer",
          "type": "address"
        }
      ],
      "name": "removeConsumer",
      "outputs": [],
      "stateMutability": "nonpayable",
      "type": "function"
    },
    {
      "inputs": [],
      "name": "getConfig",
      "outputs": [
        {
          "internalType": "uint16",
          "name": "minimumRequestConfirmations",
          "type": "uint16"
        },
        {
          "internalType": "uint32",
          "name": "maxGasLimit",
          "type": "uint32"
        },
        {
          "internalType": "uint32",
          "name": "stalenessSeconds",
          "type": "uint32"
        },
        {
          "internalType": "uint32",
          "name": "gasAfterPaymentCalculation",
          "type": "uint32"
        }
      ],
      "stateMutability": "pure",
      "type": "function",
      "constant": true
    },
    {
      "inputs": [],
      "name": "getFeeConfig",
      "outputs": [
        {
          "internalType": "uint32",
          "name": "fulfillmentFlatFeeLinkPPMTier1",
          "type": "uint32"
        },
        {
          "internalType": "uint32",
          "name": "fulfillmentFlatFeeLinkPPMTier2",
          "type": "uint32"
        },
        {
          "internalType": "uint32",
          "name": "fulfillmentFlatFeeLinkPPMTier3",
          "type": "uint32"
        },
        {
          "internalType": "uint32",
          "name": "fulfillmentFlatFeeLinkPPMTier4",
          "type": "uint32"
        },
        {
          "internalType": "uint32",
          "name": "fulfillmentFlatFeeLinkPPMTier5",
          "type": "uint32"
        },
        {
          "internalType": "uint24",
          "name": "reqsForTier2",
          "type": "uint24"
        },
        {
          "internalType": "uint24",
          "name": "reqsForTier3",
          "type": "uint24"
        },
        {
          "internalType": "uint24",
          "name": "reqsForTier4",
          "type": "uint24"
        },
        {
          "internalType": "uint24",
          "name": "reqsForTier5",
          "type": "uint24"
        }
      ],
      "stateMutability": "pure",
      "type": "function",
      "constant": true
    },
    {
      "inputs": [],
      "name": "getFallbackWeiPerUnitLink",
      "outputs": [
        {
          "internalType": "int256",
          "name": "",
          "type": "int256"
        }
      ],
      "stateMutability": "pure",
      "type": "function",
      "constant": true
    },
    {
      "inputs": [
        {
          "internalType": "uint64",
          "name": "",
          "type": "uint64"
        },
        {
          "internalType": "address",
          "name": "",
          "type": "address"
        }
      ],
      "name": "requestSubscriptionOwnerTransfer",
      "outputs": [],
      "stateMutability": "pure",
      "type": "function",
      "constant": true
    },
    {
      "inputs": [
        {
          "internalType": "uint64",
          "name": "",
          "type": "uint64"
        }
      ],
      "name": "acceptSubscriptionOwnerTransfer",
      "outputs": [],
      "stateMutability": "pure",
      "type": "function",
      "constant": true
    },
    {
      "inputs": [
        {
          "internalType": "uint64",
          "name": "",
          "type": "uint64"
        }
      ],
      "name": "pendingRequestExists",
      "outputs": [
        {
          "internalType": "bool",
          "name": "",
          "type": "bool"
        }
      ],
      "stateMutability": "pure",
      "type": "function",
      "constant": true
    }
  ],
  "bytecode": "0x60e0604052606461ffff1660c09061ffff16815250600160045560646005553480156200002a575f80fd5b50604051620037fe380380620037fe833981810160405281019062000050919062000426565b33805f8073ffffffffffffffffffffffffffffffffffffffff168273ffffffffffffffffffffffffffffffffffffffff1603620000c4576040517f08c379a0000000000000000000000000000000000000000000000000000000008152600401620000bb90620004c9565b60405180910390fd5b815f806101000a81548173ffffffffffffffffffffffffffffffffffffffff021916908373ffffffffffffffffffffffffffffffffffffffff1602179055505f73ffffffffffffffffffffffffffffffffffffffff168173ffffffffffffffffffffffffffffffffffffffff161462000149576200014881620001ac60201b60201c565b5b505050816bffffffffffffffffffffffff166080816bffffffffffffffffffffffff1681525050806bffffffffffffffffffffffff1660a0816bffffffffffffffffffffffff1681525050620001a4620002d960201b60201c565b5050620005c5565b3373ffffffffffffffffffffffffffffffffffffffff168173ffffffffffffffffffffffffffffffffffffffff16036200021d576040517f08c379a0000000000000000000000000000000000000000000000000000000008152600401620002149062000537565b60405180910390fd5b8060015f6101000a81548173ffffffffffffffffffffffffffffffffffffffff021916908373ffffffffffffffffffffffffffffffffffffffff1602179055508073ffffffffffffffffffffffffffffffffffffffff165f8054906101000a900473ffffffffffffffffffffffffffffffffffffffff1673ffffffffffffffffffffffffffffffffffffffff167fed8889f560326eb138920d842192f0eb3dd22b4f139c87a2c57538e05bae127860405160405180910390a350565b620002e96200034a60201b60201c565b60405180602001604052805f151581525060025f820151815f015f6101000a81548160ff0219169083151502179055509050507f4b2974a542484cba2783812ff8033f7fc682cac2fe0905c28c5e27869b3155be60405160405180910390a1565b5f8054906101000a900473ffffffffffffffffffffffffffffffffffffffff1673ffffffffffffffffffffffffffffffffffffffff163373ffffffffffffffffffffffffffffffffffffffff1614620003da576040517f08c379a0000000000000000000000000000000000000000000000000000000008152600401620003d190620005a5565b60405180910390fd5b565b5f80fd5b5f6bffffffffffffffffffffffff82169050919050565b6200040281620003e0565b81146200040d575f80fd5b50565b5f815190506200042081620003f7565b92915050565b5f80604083850312156200043f576200043e620003dc565b5b5f6200044e8582860162000410565b9250506020620004618582860162000410565b9150509250929050565b5f82825260208201905092915050565b7f43616e6e6f7420736574206f776e657220746f207a65726f00000000000000005f82015250565b5f620004b16018836200046b565b9150620004be826200047b565b602082019050919050565b5f6020820190508181035f830152620004e281620004a3565b9050919050565b7f43616e6e6f74207472616e7366657220746f2073656c660000000000000000005f82015250565b5f6200051f6017836200046b565b91506200052c82620004e9565b602082019050919050565b5f6020820190508181035f830152620005508162000511565b9050919050565b7f4f6e6c792063616c6c61626c65206279206f776e6572000000000000000000005f82015250565b5f6200058d6016836200046b565b91506200059a8262000557565b602082019050919050565b5f6020820190508181035f830152620005be816200057f565b9050919050565b60805160a05160c0516131f9620006055f395f8181610d6a0152610eae01525f8181610832015261185101525f81816108770152610a7701526131f95ff3fe608060405234801561000f575f80fd5b5060043610610155575f3560e01c80638b673e7a116100c1578063afc69b531161007a578063afc69b5314610372578063c3f909d41461038e578063d7ae1d30146103af578063e82ad7d4146103cb578063ed5eb06d146103fb578063f2fde38b1461042b57610155565b80638b673e7a146102bf5780638da5cb5b146102c95780639f87fad7146102e7578063a21a23e414610303578063a410347f14610321578063a47c76961461033f57610155565b80635fbbc0d2116101135780635fbbc0d21461021d57806364d51a2a146102435780637341c10c1461026157806379ba50971461027d578063808974ff1461028757806382359740146102a357610155565b80620122911461015957806304c357cb1461017957806308e3898e14610195578063356dac71146101b15780633d18651e146101cf5780635d3b1d30146101ed575b5f80fd5b610161610447565b604051610170939291906122cc565b60405180910390f35b610193600480360381019061018e91906123b0565b6104a5565b005b6101af60048036038101906101aa9190612571565b6104e0565b005b6101b9610a67565b6040516101c691906125f5565b60405180910390f35b6101d7610a75565b6040516101e49190612634565b60405180910390f35b610207600480360381019061020291906126cb565b610a99565b6040516102149190612751565b60405180910390f35b610225610d30565b60405161023a99989796959493929190612787565b60405180910390f35b61024b610d68565b6040516102589190612812565b60405180910390f35b61027b600480360381019061027691906123b0565b610d8c565b005b61028561100b565b005b6102a1600480360381019061029c919061282b565b61119a565b005b6102bd60048036038101906102b89190612869565b611239565b005b6102c7611274565b005b6102d16112dd565b6040516102de91906128a3565b60405180910390f35b61030160048036038101906102fc91906123b0565b611304565b005b61030b6116a0565b60405161031891906128cb565b60405180910390f35b61032961184f565b6040516103369190612634565b60405180910390f35b61035960048036038101906103549190612869565b611873565b604051610369949392919061299b565b60405180910390f35b61038c60048036038101906103879190612a0f565b611a64565b005b610396611c22565b6040516103a69493929190612a4d565b60405180910390f35b6103c960048036038101906103c491906123b0565b611c40565b005b6103e560048036038101906103e09190612869565b611e9c565b6040516103f29190612aaa565b60405180910390f35b610415600480360381019061041091906123b0565b611ed8565b6040516104229190612aaa565b60405180910390f35b61044560048036038101906104409190612ac3565b612005565b005b5f8060606003621e84805f67ffffffffffffffff81111561046b5761046a612435565b5b6040519080825280602002602001820160405280156104995781602001602082028036833780820191505090505b50925092509250909192565b6040517f08c379a00000000000000000000000000000000000000000000000000000000081526004016104d790612b48565b60405180910390fd5b5f5a90505f60085f8681526020019081526020015f205f015f9054906101000a900467ffffffffffffffff1667ffffffffffffffff1603610556576040517f08c379a000000000000000000000000000000000000000000000000000000000815260040161054d90612bb0565b60405180910390fd5b5f60085f8681526020019081526020015f206040518060600160405290815f82015f9054906101000a900467ffffffffffffffff1667ffffffffffffffff1667ffffffffffffffff1681526020015f820160089054906101000a900463ffffffff1663ffffffff1663ffffffff1681526020015f8201600c9054906101000a900463ffffffff1663ffffffff1663ffffffff168152505090505f8351036106c357806040015163ffffffff1667ffffffffffffffff81111561061b5761061a612435565b5b6040519080825280602002602001820160405280156106495781602001602082028036833780820191505090505b5092505f5b816040015163ffffffff168110156106bd578581604051602001610673929190612bce565b604051602081830303815290604052805190602001205f1c84828151811061069e5761069d612bf5565b5b60200260200101818152505080806106b590612c4f565b91505061064e565b50610708565b806040015163ffffffff16835114610707576040517f3f3df5b600000000000000000000000000000000000000000000000000000000815260040160405180910390fd5b5b5f80631fe543e360e01b8786604051602401610725929190612d4d565b604051602081830303815290604052907bffffffffffffffffffffffffffffffffffffffffffffffffffffffff19166020820180517bffffffffffffffffffffffffffffffffffffffffffffffffffffffff83818316178352505050509050600160025f015f6101000a81548160ff0219169083151502179055505f8673ffffffffffffffffffffffffffffffffffffffff16846020015163ffffffff16836040516107d19190612de7565b5f604051808303815f8787f1925050503d805f811461080b576040519150601f19603f3d011682016040523d82523d5f602084013e610810565b606091505b505090505f60025f015f6101000a81548160ff0219169083151502179055505f7f00000000000000000000000000000000000000000000000000000000000000006bffffffffffffffffffffffff165a8761086b9190612dfd565b6108759190612e30565b7f00000000000000000000000000000000000000000000000000000000000000006bffffffffffffffffffffffff166108ae9190612e71565b9050806bffffffffffffffffffffffff1660065f875f015167ffffffffffffffff1667ffffffffffffffff1681526020019081526020015f205f0160149054906101000a90046bffffffffffffffffffffffff166bffffffffffffffffffffffff161015610948576040517ff4d678b800000000000000000000000000000000000000000000000000000000815260040160405180910390fd5b8060065f875f015167ffffffffffffffff1667ffffffffffffffff1681526020019081526020015f205f0160148282829054906101000a90046bffffffffffffffffffffffff166109999190612ea4565b92506101000a8154816bffffffffffffffffffffffff02191690836bffffffffffffffffffffffff16021790555060085f8a81526020019081526020015f205f8082015f6101000a81549067ffffffffffffffff02191690555f820160086101000a81549063ffffffff02191690555f8201600c6101000a81549063ffffffff02191690555050887f7dffc5ae5ee4e2e4df1651cf6ad329a73cebdb728f37ea0187b9b17e036756e48a8385604051610a5493929190612ee3565b60405180910390a2505050505050505050565b5f660e35fa931a0000905090565b7f000000000000000000000000000000000000000000000000000000000000000081565b5f60025f015f9054906101000a900460ff1615610ae2576040517fed3ba6a600000000000000000000000000000000000000000000000000000000815260040160405180910390fd5b8433610aee8282611ed8565b610b24576040517f71e8313700000000000000000000000000000000000000000000000000000000815260040160405180910390fd5b5f73ffffffffffffffffffffffffffffffffffffffff1660065f8967ffffffffffffffff1667ffffffffffffffff1681526020019081526020015f205f015f9054906101000a900473ffffffffffffffffffffffffffffffffffffffff1673ffffffffffffffffffffffffffffffffffffffff1603610bcf576040517f1f6a65b600000000000000000000000000000000000000000000000000000000815260040160405180910390fd5b5f60045f815480929190610be290612c4f565b9190505590505f60055f815480929190610bfb90612c4f565b91905055905060405180606001604052808a67ffffffffffffffff1681526020018863ffffffff1681526020018763ffffffff1681525060085f8481526020019081526020015f205f820151815f015f6101000a81548167ffffffffffffffff021916908367ffffffffffffffff1602179055506020820151815f0160086101000a81548163ffffffff021916908363ffffffff1602179055506040820151815f01600c6101000a81548163ffffffff021916908363ffffffff1602179055509050503373ffffffffffffffffffffffffffffffffffffffff168967ffffffffffffffff168b7f63373d1c4696214b898952999c9aaec57dac1ee2723cec59bea6888f489a977285858d8d8d604051610d18959493929190612f18565b60405180910390a48194505050505095945050505050565b5f805f805f805f805f620186a080620186a080620186a05f805f80985098509850985098509850985098509850909192939495969798565b7f000000000000000000000000000000000000000000000000000000000000000081565b815f60065f8367ffffffffffffffff1667ffffffffffffffff1681526020019081526020015f205f015f9054906101000a900473ffffffffffffffffffffffffffffffffffffffff1690505f73ffffffffffffffffffffffffffffffffffffffff168173ffffffffffffffffffffffffffffffffffffffff1603610e3c576040517f1f6a65b600000000000000000000000000000000000000000000000000000000815260040160405180910390fd5b8073ffffffffffffffffffffffffffffffffffffffff163373ffffffffffffffffffffffffffffffffffffffff1614610eac57806040517fd8a3fb52000000000000000000000000000000000000000000000000000000008152600401610ea391906128a3565b60405180910390fd5b7f000000000000000000000000000000000000000000000000000000000000000061ffff1660075f8667ffffffffffffffff1667ffffffffffffffff1681526020019081526020015f208054905003610f31576040517f05a48e0f00000000000000000000000000000000000000000000000000000000815260040160405180910390fd5b610f3b8484611ed8565b6110055760075f8567ffffffffffffffff1667ffffffffffffffff1681526020019081526020015f2083908060018154018082558091505060019003905f5260205f20015f9091909190916101000a81548173ffffffffffffffffffffffffffffffffffffffff021916908373ffffffffffffffffffffffffffffffffffffffff1602179055508367ffffffffffffffff167f752ead9f4536ec1319ee3a5a604e1d65eded22e0924251552ba14ae4faa1bbc384604051610ffc91906128a3565b60405180910390a25b50505050565b60015f9054906101000a900473ffffffffffffffffffffffffffffffffffffffff1673ffffffffffffffffffffffffffffffffffffffff163373ffffffffffffffffffffffffffffffffffffffff161461109a576040517f08c379a000000000000000000000000000000000000000000000000000000000815260040161109190612fb3565b60405180910390fd5b5f805f9054906101000a900473ffffffffffffffffffffffffffffffffffffffff169050335f806101000a81548173ffffffffffffffffffffffffffffffffffffffff021916908373ffffffffffffffffffffffffffffffffffffffff1602179055505f60015f6101000a81548173ffffffffffffffffffffffffffffffffffffffff021916908373ffffffffffffffffffffffffffffffffffffffff1602179055503373ffffffffffffffffffffffffffffffffffffffff168173ffffffffffffffffffffffffffffffffffffffff167f8be0079c531659141344cd1fd0a4f28419497f9722a3daafe3b4186f6b6457e060405160405180910390a350565b60025f015f9054906101000a900460ff16156111e2576040517fed3ba6a600000000000000000000000000000000000000000000000000000000815260040160405180910390fd5b61123582825f67ffffffffffffffff81111561120157611200612435565b5b60405190808252806020026020018201604052801561122f5781602001602082028036833780820191505090505b506104e0565b5050565b6040517f08c379a000000000000000000000000000000000000000000000000000000000815260040161126b90612b48565b60405180910390fd5b61127c612019565b60405180602001604052805f151581525060025f820151815f015f6101000a81548160ff0219169083151502179055509050507f4b2974a542484cba2783812ff8033f7fc682cac2fe0905c28c5e27869b3155be60405160405180910390a1565b5f805f9054906101000a900473ffffffffffffffffffffffffffffffffffffffff16905090565b815f60065f8367ffffffffffffffff1667ffffffffffffffff1681526020019081526020015f205f015f9054906101000a900473ffffffffffffffffffffffffffffffffffffffff1690505f73ffffffffffffffffffffffffffffffffffffffff168173ffffffffffffffffffffffffffffffffffffffff16036113b4576040517f1f6a65b600000000000000000000000000000000000000000000000000000000815260040160405180910390fd5b8073ffffffffffffffffffffffffffffffffffffffff163373ffffffffffffffffffffffffffffffffffffffff161461142457806040517fd8a3fb5200000000000000000000000000000000000000000000000000000000815260040161141b91906128a3565b60405180910390fd5b83836114308282611ed8565b611466576040517f71e8313700000000000000000000000000000000000000000000000000000000815260040160405180910390fd5b60025f015f9054906101000a900460ff16156114ae576040517fed3ba6a600000000000000000000000000000000000000000000000000000000815260040160405180910390fd5b5f60075f8867ffffffffffffffff1667ffffffffffffffff1681526020019081526020015f2090505f5b8180549050811015611654578673ffffffffffffffffffffffffffffffffffffffff1682828154811061150e5761150d612bf5565b5b905f5260205f20015f9054906101000a900473ffffffffffffffffffffffffffffffffffffffff1673ffffffffffffffffffffffffffffffffffffffff1603611641575f82600184805490506115649190612dfd565b8154811061157557611574612bf5565b5b905f5260205f20015f9054906101000a900473ffffffffffffffffffffffffffffffffffffffff169050808383815481106115b3576115b2612bf5565b5b905f5260205f20015f6101000a81548173ffffffffffffffffffffffffffffffffffffffff021916908373ffffffffffffffffffffffffffffffffffffffff1602179055508280548061160957611608612fd1565b5b600190038181905f5260205f20015f6101000a81549073ffffffffffffffffffffffffffffffffffffffff0219169055905550611654565b808061164c90612c4f565b9150506114d8565b508667ffffffffffffffff167ff9bc9d5b5733d904409def43a5ecc888dbdac9a95687780d8fd489d3bb3813fc8760405161168f91906128a3565b60405180910390a250505050505050565b5f60035f81819054906101000a900467ffffffffffffffff16809291906116c690612ffe565b91906101000a81548167ffffffffffffffff021916908367ffffffffffffffff1602179055505060405180604001604052803373ffffffffffffffffffffffffffffffffffffffff1681526020015f6bffffffffffffffffffffffff1681525060065f60035f9054906101000a900467ffffffffffffffff1667ffffffffffffffff1667ffffffffffffffff1681526020019081526020015f205f820151815f015f6101000a81548173ffffffffffffffffffffffffffffffffffffffff021916908373ffffffffffffffffffffffffffffffffffffffff1602179055506020820151815f0160146101000a8154816bffffffffffffffffffffffff02191690836bffffffffffffffffffffffff16021790555090505060035f9054906101000a900467ffffffffffffffff1667ffffffffffffffff167f464722b4166576d3dcbba877b999bc35cf911f4eaf434b7eba68fa113951d0bf3360405161182c91906128a3565b60405180910390a260035f9054906101000a900467ffffffffffffffff16905090565b7f000000000000000000000000000000000000000000000000000000000000000081565b5f805f60605f73ffffffffffffffffffffffffffffffffffffffff1660065f8767ffffffffffffffff1667ffffffffffffffff1681526020019081526020015f205f015f9054906101000a900473ffffffffffffffffffffffffffffffffffffffff1673ffffffffffffffffffffffffffffffffffffffff1603611923576040517f1f6a65b600000000000000000000000000000000000000000000000000000000815260040160405180910390fd5b60065f8667ffffffffffffffff1667ffffffffffffffff1681526020019081526020015f205f0160149054906101000a90046bffffffffffffffffffffffff165f60065f8867ffffffffffffffff1667ffffffffffffffff1681526020019081526020015f205f015f9054906101000a900473ffffffffffffffffffffffffffffffffffffffff1660075f8967ffffffffffffffff1667ffffffffffffffff1681526020019081526020015f2080805480602002602001604051908101604052809291908181526020018280548015611a4e57602002820191905f5260205f20905b815f9054906101000a900473ffffffffffffffffffffffffffffffffffffffff1673ffffffffffffffffffffffffffffffffffffffff1681526020019060010190808311611a05575b5050505050905093509350935093509193509193565b5f73ffffffffffffffffffffffffffffffffffffffff1660065f8467ffffffffffffffff1667ffffffffffffffff1681526020019081526020015f205f015f9054906101000a900473ffffffffffffffffffffffffffffffffffffffff1673ffffffffffffffffffffffffffffffffffffffff1603611b0f576040517f1f6a65b600000000000000000000000000000000000000000000000000000000815260040160405180910390fd5b5f60065f8467ffffffffffffffff1667ffffffffffffffff1681526020019081526020015f205f0160149054906101000a90046bffffffffffffffffffffffff1690508160065f8567ffffffffffffffff1667ffffffffffffffff1681526020019081526020015f205f0160148282829054906101000a90046bffffffffffffffffffffffff16611ba0919061302d565b92506101000a8154816bffffffffffffffffffffffff02191690836bffffffffffffffffffffffff1602179055508267ffffffffffffffff167fd39ec07f4e209f627a4c427971473820dc129761ba28de8906bd56f57101d4f8828484611c07919061302d565b604051611c159291906130a5565b60405180910390a2505050565b5f805f806004622625a0610a8c618205935093509350935090919293565b815f60065f8367ffffffffffffffff1667ffffffffffffffff1681526020019081526020015f205f015f9054906101000a900473ffffffffffffffffffffffffffffffffffffffff1690505f73ffffffffffffffffffffffffffffffffffffffff168173ffffffffffffffffffffffffffffffffffffffff1603611cf0576040517f1f6a65b600000000000000000000000000000000000000000000000000000000815260040160405180910390fd5b8073ffffffffffffffffffffffffffffffffffffffff163373ffffffffffffffffffffffffffffffffffffffff1614611d6057806040517fd8a3fb52000000000000000000000000000000000000000000000000000000008152600401611d5791906128a3565b60405180910390fd5b60025f015f9054906101000a900460ff1615611da8576040517fed3ba6a600000000000000000000000000000000000000000000000000000000815260040160405180910390fd5b8367ffffffffffffffff167fe8ed5b475a5b5987aa9165e8731bb78043f39eee32ec5a1169a89e27fcd498158460065f8867ffffffffffffffff1667ffffffffffffffff1681526020019081526020015f205f0160149054906101000a90046bffffffffffffffffffffffff16604051611e239291906130cc565b60405180910390a260065f8567ffffffffffffffff1667ffffffffffffffff1681526020019081526020015f205f8082015f6101000a81549073ffffffffffffffffffffffffffffffffffffffff02191690555f820160146101000a8154906bffffffffffffffffffffffff0219169055505050505050565b5f6040517f08c379a0000000000000000000000000000000000000000000000000000000008152600401611ecf90612b48565b60405180910390fd5b5f8060075f8567ffffffffffffffff1667ffffffffffffffff1681526020019081526020015f20805480602002602001604051908101604052809291908181526020018280548015611f7c57602002820191905f5260205f20905b815f9054906101000a900473ffffffffffffffffffffffffffffffffffffffff1673ffffffffffffffffffffffffffffffffffffffff1681526020019060010190808311611f33575b505050505090505f5b8151811015611ff9578373ffffffffffffffffffffffffffffffffffffffff16828281518110611fb857611fb7612bf5565b5b602002602001015173ffffffffffffffffffffffffffffffffffffffff1603611fe657600192505050611fff565b8080611ff190612c4f565b915050611f85565b505f9150505b92915050565b61200d612019565b612016816120a8565b50565b5f8054906101000a900473ffffffffffffffffffffffffffffffffffffffff1673ffffffffffffffffffffffffffffffffffffffff163373ffffffffffffffffffffffffffffffffffffffff16146120a6576040517f08c379a000000000000000000000000000000000000000000000000000000000815260040161209d9061313d565b60405180910390fd5b565b3373ffffffffffffffffffffffffffffffffffffffff168173ffffffffffffffffffffffffffffffffffffffff1603612116576040517f08c379a000000000000000000000000000000000000000000000000000000000815260040161210d906131a5565b60405180910390fd5b8060015f6101000a81548173ffffffffffffffffffffffffffffffffffffffff021916908373ffffffffffffffffffffffffffffffffffffffff1602179055508073ffffffffffffffffffffffffffffffffffffffff165f8054906101000a900473ffffffffffffffffffffffffffffffffffffffff1673ffffffffffffffffffffffffffffffffffffffff167fed8889f560326eb138920d842192f0eb3dd22b4f139c87a2c57538e05bae127860405160405180910390a350565b5f61ffff82169050919050565b6121e8816121d2565b82525050565b5f63ffffffff82169050919050565b612206816121ee565b82525050565b5f81519050919050565b5f82825260208201905092915050565b5f819050602082019050919050565b5f819050919050565b61224781612235565b82525050565b5f612258838361223e565b60208301905092915050565b5f602082019050919050565b5f61227a8261220c565b6122848185612216565b935061228f83612226565b805f5b838110156122bf5781516122a6888261224d565b97506122b183612264565b925050600181019050612292565b5085935050505092915050565b5f6060820190506122df5f8301866121df565b6122ec60208301856121fd565b81810360408301526122fe8184612270565b9050949350505050565b5f604051905090565b5f80fd5b5f80fd5b5f67ffffffffffffffff82169050919050565b61233581612319565b811461233f575f80fd5b50565b5f813590506123508161232c565b92915050565b5f73ffffffffffffffffffffffffffffffffffffffff82169050919050565b5f61237f82612356565b9050919050565b61238f81612375565b8114612399575f80fd5b50565b5f813590506123aa81612386565b92915050565b5f80604083850312156123c6576123c5612311565b5b5f6123d385828601612342565b92505060206123e48582860161239c565b9150509250929050565b5f819050919050565b612400816123ee565b811461240a575f80fd5b50565b5f8135905061241b816123f7565b92915050565b5f80fd5b5f601f19601f8301169050919050565b7f4e487b71000000000000000000000000000000000000000000000000000000005f52604160045260245ffd5b61246b82612425565b810181811067ffffffffffffffff8211171561248a57612489612435565b5b80604052505050565b5f61249c612308565b90506124a88282612462565b919050565b5f67ffffffffffffffff8211156124c7576124c6612435565b5b602082029050602081019050919050565b5f80fd5b5f6124ee6124e9846124ad565b612493565b90508083825260208201905060208402830185811115612511576125106124d8565b5b835b8181101561253a5780612526888261240d565b845260208401935050602081019050612513565b5050509392505050565b5f82601f83011261255857612557612421565b5b81356125688482602086016124dc565b91505092915050565b5f805f6060848603121561258857612587612311565b5b5f6125958682870161240d565b93505060206125a68682870161239c565b925050604084013567ffffffffffffffff8111156125c7576125c6612315565b5b6125d386828701612544565b9150509250925092565b5f819050919050565b6125ef816125dd565b82525050565b5f6020820190506126085f8301846125e6565b92915050565b5f6bffffffffffffffffffffffff82169050919050565b61262e8161260e565b82525050565b5f6020820190506126475f830184612625565b92915050565b61265681612235565b8114612660575f80fd5b50565b5f813590506126718161264d565b92915050565b612680816121d2565b811461268a575f80fd5b50565b5f8135905061269b81612677565b92915050565b6126aa816121ee565b81146126b4575f80fd5b50565b5f813590506126c5816126a1565b92915050565b5f805f805f60a086880312156126e4576126e3612311565b5b5f6126f188828901612663565b955050602061270288828901612342565b94505060406127138882890161268d565b9350506060612724888289016126b7565b9250506080612735888289016126b7565b9150509295509295909350565b61274b816123ee565b82525050565b5f6020820190506127645f830184612742565b92915050565b5f62ffffff82169050919050565b6127818161276a565b82525050565b5f6101208201905061279b5f83018c6121fd565b6127a8602083018b6121fd565b6127b5604083018a6121fd565b6127c260608301896121fd565b6127cf60808301886121fd565b6127dc60a0830187612778565b6127e960c0830186612778565b6127f660e0830185612778565b612804610100830184612778565b9a9950505050505050505050565b5f6020820190506128255f8301846121df565b92915050565b5f806040838503121561284157612840612311565b5b5f61284e8582860161240d565b925050602061285f8582860161239c565b9150509250929050565b5f6020828403121561287e5761287d612311565b5b5f61288b84828501612342565b91505092915050565b61289d81612375565b82525050565b5f6020820190506128b65f830184612894565b92915050565b6128c581612319565b82525050565b5f6020820190506128de5f8301846128bc565b92915050565b5f81519050919050565b5f82825260208201905092915050565b5f819050602082019050919050565b61291681612375565b82525050565b5f612927838361290d565b60208301905092915050565b5f602082019050919050565b5f612949826128e4565b61295381856128ee565b935061295e836128fe565b805f5b8381101561298e578151612975888261291c565b975061298083612933565b925050600181019050612961565b5085935050505092915050565b5f6080820190506129ae5f830187612625565b6129bb60208301866128bc565b6129c86040830185612894565b81810360608301526129da818461293f565b905095945050505050565b6129ee8161260e565b81146129f8575f80fd5b50565b5f81359050612a09816129e5565b92915050565b5f8060408385031215612a2557612a24612311565b5b5f612a3285828601612342565b9250506020612a43858286016129fb565b9150509250929050565b5f608082019050612a605f8301876121df565b612a6d60208301866121fd565b612a7a60408301856121fd565b612a8760608301846121fd565b95945050505050565b5f8115159050919050565b612aa481612a90565b82525050565b5f602082019050612abd5f830184612a9b565b92915050565b5f60208284031215612ad857612ad7612311565b5b5f612ae58482850161239c565b91505092915050565b5f82825260208201905092915050565b7f6e6f7420696d706c656d656e74656400000000000000000000000000000000005f82015250565b5f612b32600f83612aee565b9150612b3d82612afe565b602082019050919050565b5f6020820190508181035f830152612b5f81612b26565b9050919050565b7f6e6f6e6578697374656e742072657175657374000000000000000000000000005f82015250565b5f612b9a601383612aee565b9150612ba582612b66565b602082019050919050565b5f6020820190508181035f830152612bc781612b8e565b9050919050565b5f604082019050612be15f830185612742565b612bee6020830184612742565b9392505050565b7f4e487b71000000000000000000000000000000000000000000000000000000005f52603260045260245ffd5b7f4e487b71000000000000000000000000000000000000000000000000000000005f52601160045260245ffd5b5f612c59826123ee565b91507fffffffffffffffffffffffffffffffffffffffffffffffffffffffffffffffff8203612c8b57612c8a612c22565b5b600182019050919050565b5f81519050919050565b5f82825260208201905092915050565b5f819050602082019050919050565b612cc8816123ee565b82525050565b5f612cd98383612cbf565b60208301905092915050565b5f602082019050919050565b5f612cfb82612c96565b612d058185612ca0565b9350612d1083612cb0565b805f5b83811015612d40578151612d278882612cce565b9750612d3283612ce5565b925050600181019050612d13565b5085935050505092915050565b5f604082019050612d605f830185612742565b8181036020830152612d728184612cf1565b90509392505050565b5f81519050919050565b5f81905092915050565b5f5b83811015612dac578082015181840152602081019050612d91565b5f8484015250505050565b5f612dc182612d7b565b612dcb8185612d85565b9350612ddb818560208601612d8f565b80840191505092915050565b5f612df28284612db7565b915081905092915050565b5f612e07826123ee565b9150612e12836123ee565b9250828203905081811115612e2a57612e29612c22565b5b92915050565b5f612e3a826123ee565b9150612e45836123ee565b9250828202612e53816123ee565b91508282048414831517612e6a57612e69612c22565b5b5092915050565b5f612e7b826123ee565b9150612e86836123ee565b9250828201905080821115612e9e57612e9d612c22565b5b92915050565b5f612eae8261260e565b9150612eb98361260e565b925082820390506bffffffffffffffffffffffff811115612edd57612edc612c22565b5b92915050565b5f606082019050612ef65f830186612742565b612f036020830185612625565b612f106040830184612a9b565b949350505050565b5f60a082019050612f2b5f830188612742565b612f386020830187612742565b612f4560408301866121df565b612f5260608301856121fd565b612f5f60808301846121fd565b9695505050505050565b7f4d7573742062652070726f706f736564206f776e6572000000000000000000005f82015250565b5f612f9d601683612aee565b9150612fa882612f69565b602082019050919050565b5f6020820190508181035f830152612fca81612f91565b9050919050565b7f4e487b71000000000000000000000000000000000000000000000000000000005f52603160045260245ffd5b5f61300882612319565b915067ffffffffffffffff820361302257613021612c22565b5b600182019050919050565b5f6130378261260e565b91506130428361260e565b925082820190506bffffffffffffffffffffffff81111561306657613065612c22565b5b92915050565b5f819050919050565b5f61308f61308a6130858461260e565b61306c565b6123ee565b9050919050565b61309f81613075565b82525050565b5f6040820190506130b85f830185613096565b6130c56020830184613096565b9392505050565b5f6040820190506130df5f830185612894565b6130ec6020830184613096565b9392505050565b7f4f6e6c792063616c6c61626c65206279206f776e6572000000000000000000005f82015250565b5f613127601683612aee565b9150613132826130f3565b602082019050919050565b5f6020820190508181035f8301526131548161311b565b9050919050565b7f43616e6e6f74207472616e7366657220746f2073656c660000000000000000005f82015250565b5f61318f601783612aee565b915061319a8261315b565b602082019050919050565b5f6020820190508181035f8301526131bc81613183565b905091905056fea26469706673582212200d56bf8cf0e6ff9db2df984d847af8e208c61b92df86b842231571a6ecd966dd64736f6c63430008150033",
  "immutableReferences": {
    "386": [
      {
        "length": 32,
        "start": 2167
      },
      {
        "length": 32,
        "start": 2679
      }
    ],
    "388": [
      {
        "length": 32,
        "start": 2098
      },
      {
        "length": 32,
        "start": 6225
      }
    ],
    "391": [
      {
        "length": 32,
        "start": 3434
      },
      {
        "length": 32,
        "start": 3758
      }
    ]
  },
  "source": "// SPDX-License-Identifier: MIT\n// A mock for testing code that relies on VRFCoordinatorV2.\npragma solidity ^0.8.4;\n\nimport {VRFCoordinatorV2Interface} from \"../interfaces/VRFCoordinatorV2Interface.sol\";\nimport {VRFConsumerBaseV2} from \"../VRFConsumerBaseV2.sol\";\nimport {ConfirmedOwner} from \"../../shared/access/ConfirmedOwner.sol\";\n\n// solhint-disable chainlink-solidity/prefix-immutable-variables-with-i\n// solhint-disable gas-custom-errors\n// solhint-disable avoid-low-level-calls\n\ncontract VRFCoordinatorV2Mock is VRFCoordinatorV2Interface, ConfirmedOwner {\n  uint96 public immutable BASE_FEE;\n  uint96 public immutable GAS_PRICE_LINK;\n  uint16 public immutable MAX_CONSUMERS = 100;\n\n  error InvalidSubscription();\n  error InsufficientBalance();\n  error MustBeSubOwner(address owner);\n  error TooManyConsumers();\n  error InvalidConsumer();\n  error InvalidRandomWords();\n  error Reentrant();\n\n  event RandomWordsRequested(\n    bytes32 indexed keyHash,\n    uint256 requestId,\n    uint256 preSeed,\n    uint64 indexed subId,\n    uint16 minimumRequestConfirmations,\n    uint32 callbackGasLimit,\n    uint32 numWords,\n    address indexed sender\n  );\n  event RandomWordsFulfilled(uint256 indexed requestId, uint256 outputSeed, uint96 payment, bool success);\n  event SubscriptionCreated(uint64 indexed subId, address owner);\n  event SubscriptionFunded(uint64 indexed subId, uint256 oldBalance, uint256 newBalance);\n  event SubscriptionCanceled(uint64 indexed subId, address to, uint256 amount);\n  event ConsumerAdded(uint64 indexed subId, address consumer);\n  event ConsumerRemoved(uint64 indexed subId, address consumer);\n  event ConfigSet();\n\n  struct Config {\n    // Reentrancy protection.\n    bool reentrancyLock;\n  }\n  Config private s_config;\n  uint64 internal s_currentSubId;\n  uint256 internal s_nextRequestId = 1;\n  uint256 internal s_nextPreSeed = 100;\n  struct Subscription {\n    address owner;\n    uint96 balance;\n  }\n  mapping(uint64 => Subscription) internal s_subscriptions; /* subId */ /* subscription */\n  mapping(uint64 => address[]) internal s_consumers; /* subId */ /* consumers */\n\n  struct Request {\n    uint64 subId;\n    uint32 callbackGasLimit;\n    uint32 numWords;\n  }\n  mapping(uint256 => Request) internal s_requests; /* requestId */ /* request */\n\n  constructor(uint96 _baseFee, uint96 _gasPriceLink) ConfirmedOwner(msg.sender) {\n    BASE_FEE = _baseFee;\n    GAS_PRICE_LINK = _gasPriceLink;\n    setConfig();\n  }\n\n  /**\n   * @notice Sets the configuration of the vrfv2 mock coordinator\n   */\n  function setConfig() public onlyOwner {\n    s_config = Config({reentrancyLock: false});\n    emit ConfigSet();\n  }\n\n  function consumerIsAdded(uint64 _subId, address _consumer) public view returns (bool) {\n    address[] memory consumers = s_consumers[_subId];\n    for (uint256 i = 0; i < consumers.length; i++) {\n      if (consumers[i] == _consumer) {\n        return true;\n      }\n    }\n    return false;\n  }\n\n  modifier onlyValidConsumer(uint64 _subId, address _consumer) {\n    if (!consumerIsAdded(_subId, _consumer)) {\n      revert InvalidConsumer();\n    }\n    _;\n  }\n\n  /**\n   * @notice fulfillRandomWords fulfills the given request, sending the random words to the supplied\n   * @notice consumer.\n   *\n   * @dev This mock uses a simplified formula for calculating payment amount and gas usage, and does\n   * @dev not account for all edge cases handled in the real VRF coordinator. When making requests\n   * @dev against the real coordinator a small amount of additional LINK is required.\n   *\n   * @param _requestId the request to fulfill\n   * @param _consumer the VRF randomness consumer to send the result to\n   */\n  function fulfillRandomWords(uint256 _requestId, address _consumer) external nonReentrant {\n    fulfillRandomWordsWithOverride(_requestId, _consumer, new uint256[](0));\n  }\n\n  /**\n   * @notice fulfillRandomWordsWithOverride allows the user to pass in their own random words.\n   *\n   * @param _requestId the request to fulfill\n   * @param _consumer the VRF randomness consumer to send the result to\n   * @param _words user-provided random words\n   */\n  function fulfillRandomWordsWithOverride(uint256 _requestId, address _consumer, uint256[] memory _words) public {\n    uint256 startGas = gasleft();\n    if (s_requests[_requestId].subId == 0) {\n      revert(\"nonexistent request\");\n    }\n    Request memory req = s_requests[_requestId];\n\n    if (_words.length == 0) {\n      _words = new uint256[](req.numWords);\n      for (uint256 i = 0; i < req.numWords; i++) {\n        _words[i] = uint256(keccak256(abi.encode(_requestId, i)));\n      }\n    } else if (_words.length != req.numWords) {\n      revert InvalidRandomWords();\n    }\n\n    VRFConsumerBaseV2 v;\n    bytes memory callReq = abi.encodeWithSelector(v.rawFulfillRandomWords.selector, _requestId, _words);\n    s_config.reentrancyLock = true;\n    (bool success, ) = _consumer.call{gas: req.callbackGasLimit}(callReq);\n    s_config.reentrancyLock = false;\n\n    uint96 payment = uint96(BASE_FEE + ((startGas - gasleft()) * GAS_PRICE_LINK));\n    if (s_subscriptions[req.subId].balance < payment) {\n      revert InsufficientBalance();\n    }\n    s_subscriptions[req.subId].balance -= payment;\n    delete (s_requests[_requestId]);\n    emit RandomWordsFulfilled(_requestId, _requestId, payment, success);\n  }\n\n  /**\n   * @notice fundSubscription allows funding a subscription with an arbitrary amount for testing.\n   *\n   * @param _subId the subscription to fund\n   * @param _amount the amount to fund\n   */\n  function fundSubscription(uint64 _subId, uint96 _amount) public {\n    if (s_subscriptions[_subId].owner == address(0)) {\n      revert InvalidSubscription();\n    }\n    uint96 oldBalance = s_subscriptions[_subId].balance;\n    s_subscriptions[_subId].balance += _amount;\n    emit SubscriptionFunded(_subId, oldBalance, oldBalance + _amount);\n  }\n\n  function requestRandomWords(\n    bytes32 _keyHash,\n    uint64 _subId,\n    uint16 _minimumRequestConfirmations,\n    uint32 _callbackGasLimit,\n    uint32 _numWords\n  ) external override nonReentrant onlyValidConsumer(_subId, msg.sender) returns (uint256) {\n    if (s_subscriptions[_subId].owner == address(0)) {\n      revert InvalidSubscription();\n    }\n\n    uint256 requestId = s_nextRequestId++;\n    uint256 preSeed = s_nextPreSeed++;\n\n    s_requests[requestId] = Request({subId: _subId, callbackGasLimit: _callbackGasLimit, numWords: _numWords});\n\n    emit RandomWordsRequested(\n      _keyHash,\n      requestId,\n      preSeed,\n      _subId,\n      _minimumRequestConfirmations,\n      _callbackGasLimit,\n      _numWords,\n      msg.sender\n    );\n    return requestId;\n  }\n\n  function createSubscription() external override returns (uint64 _subId) {\n    s_currentSubId++;\n    s_subscriptions[s_currentSubId] = Subscription({owner: msg.sender, balance: 0});\n    emit SubscriptionCreated(s_currentSubId, msg.sender);\n    return s_currentSubId;\n  }\n\n  function getSubscription(\n    uint64 _subId\n  ) external view override returns (uint96 balance, uint64 reqCount, address owner, address[] memory consumers) {\n    if (s_subscriptions[_subId].owner == address(0)) {\n      revert InvalidSubscription();\n    }\n    return (s_subscriptions[_subId].balance, 0, s_subscriptions[_subId].owner, s_consumers[_subId]);\n  }\n\n  function cancelSubscription(uint64 _subId, address _to) external override onlySubOwner(_subId) nonReentrant {\n    emit SubscriptionCanceled(_subId, _to, s_subscriptions[_subId].balance);\n    delete (s_subscriptions[_subId]);\n  }\n\n  modifier onlySubOwner(uint64 _subId) {\n    address owner = s_subscriptions[_subId].owner;\n    if (owner == address(0)) {\n      revert InvalidSubscription();\n    }\n    if (msg.sender != owner) {\n      revert MustBeSubOwner(owner);\n    }\n    _;\n  }\n\n  function getRequestConfig() external pure override returns (uint16, uint32, bytes32[] memory) {\n    return (3, 2000000, new bytes32[](0));\n  }\n\n  function addConsumer(uint64 _subId, address _consumer) external override onlySubOwner(_subId) {\n    if (s_consumers[_subId].length == MAX_CONSUMERS) {\n      revert TooManyConsumers();\n    }\n\n    if (consumerIsAdded(_subId, _consumer)) {\n      return;\n    }\n\n    s_consumers[_subId].push(_consumer);\n    emit ConsumerAdded(_subId, _consumer);\n  }\n\n  function removeConsumer(\n    uint64 _subId,\n    address _consumer\n  ) external override onlySubOwner(_subId) onlyValidConsumer(_subId, _consumer) nonReentrant {\n    address[] storage consumers = s_consumers[_subId];\n    for (uint256 i = 0; i < consumers.length; i++) {\n      if (consumers[i] == _consumer) {\n        address last = consumers[consumers.length - 1];\n        consumers[i] = last;\n        consumers.pop();\n        break;\n      }\n    }\n\n    emit ConsumerRemoved(_subId, _consumer);\n  }\n\n  function getConfig()\n    external\n    pure\n    returns (\n      uint16 minimumRequestConfirmations,\n      uint32 maxGasLimit,\n      uint32 stalenessSeconds,\n      uint32 gasAfterPaymentCalculation\n    )\n  {\n    return (4, 2_500_000, 2_700, 33285);\n  }\n\n  function getFeeConfig()\n    external\n    pure\n    returns (\n      uint32 fulfillmentFlatFeeLinkPPMTier1,\n      uint32 fulfillmentFlatFeeLinkPPMTier2,\n      uint32 fulfillmentFlatFeeLinkPPMTier3,\n      uint32 fulfillmentFlatFeeLinkPPMTier4,\n      uint32 fulfillmentFlatFeeLinkPPMTier5,\n      uint24 reqsForTier2,\n      uint24 reqsForTier3,\n      uint24 reqsForTier4,\n      uint24 reqsForTier5\n    )\n  {\n    return (\n      100000, // 0.1 LINK\n      100000, // 0.1 LINK\n      100000, // 0.1 LINK\n      100000, // 0.1 LINK\n      100000, // 0.1 LINK\n      0,\n      0,\n      0,\n      0\n    );\n  }\n\n  modifier nonReentrant() {\n    if (s_config.reentrancyLock) {\n      revert Reentrant();\n    }\n    _;\n  }\n\n  function getFallbackWeiPerUnitLink() external pure returns (int256) {\n    return 4000000000000000; // 0.004 Ether\n  }\n\n  function requestSubscriptionOwnerTransfer(uint64 /*_subId*/, address /*_newOwner*/) external pure override {\n    revert(\"not implemented\");\n  }\n\n  function acceptSubscriptionOwnerTransfer(uint64 /*_subId*/) external pure override {\n    revert(\"not implemented\");\n  }\n\n  function pendingRequestExists(uint64 /*subId*/) public pure override returns (bool) {\n    revert(\"not implemented\");\n  }\n}\n",
  "sourcePath": "@chainlink\\contracts\\src\\v0.8\\vrf\\mocks\\VRFCoordinatorV2Mock.sol",
  "compiler": {
    "name": "solc",
    "version": "0.8.21+commit.d9974bed.Emscripten.clang"
  },
  "schemaVersion": "3.4.16",
  "updatedAt": "2024-06-03T20:01:22.133Z",
  "networkType": "ethereum",
  "devdoc": {
    "kind": "dev",
    "methods": {
      "createSubscription()": {
        "details": "You can manage the consumer set dynamically with addConsumer/removeConsumer.Note to fund the subscription, use transferAndCall. For exampleLINKTOKEN.transferAndCall(address(COORDINATOR),amount,abi.encode(subId));",
        "returns": {
          "_subId": "- A unique subscription id."
        }
      },
      "fulfillRandomWords(uint256,address)": {
        "details": "This mock uses a simplified formula for calculating payment amount and gas usage, and doesnot account for all edge cases handled in the real VRF coordinator. When making requestsagainst the real coordinator a small amount of additional LINK is required.",
        "params": {
          "_consumer": "the VRF randomness consumer to send the result to",
          "_requestId": "the request to fulfill"
        }
      },
      "fulfillRandomWordsWithOverride(uint256,address,uint256[])": {
        "params": {
          "_consumer": "the VRF randomness consumer to send the result to",
          "_requestId": "the request to fulfill",
          "_words": "user-provided random words"
        }
      },
      "fundSubscription(uint64,uint96)": {
        "params": {
          "_amount": "the amount to fund",
          "_subId": "the subscription to fund"
        }
      },
      "getRequestConfig()": {
        "returns": {
          "_0": "minimumRequestConfirmations global min for request confirmations",
          "_1": "maxGasLimit global max for request gas limit",
          "_2": "s_provingKeyHashes list of registered key hashes"
        }
      }
    },
    "version": 1
  },
  "userdoc": {
    "kind": "user",
    "methods": {
      "acceptOwnership()": {
        "notice": "Allows an ownership transfer to be completed by the recipient."
      },
      "createSubscription()": {
        "notice": "Create a VRF subscription."
      },
      "fulfillRandomWords(uint256,address)": {
        "notice": "fulfillRandomWords fulfills the given request, sending the random words to the suppliedconsumer."
      },
      "fulfillRandomWordsWithOverride(uint256,address,uint256[])": {
        "notice": "fulfillRandomWordsWithOverride allows the user to pass in their own random words."
      },
      "fundSubscription(uint64,uint96)": {
        "notice": "fundSubscription allows funding a subscription with an arbitrary amount for testing."
      },
      "getRequestConfig()": {
        "notice": "Get configuration relevant for making requests"
      },
      "owner()": {
        "notice": "Get the current owner"
      },
      "setConfig()": {
        "notice": "Sets the configuration of the vrfv2 mock coordinator"
      },
      "transferOwnership(address)": {
        "notice": "Allows an owner to begin transferring ownership to a new address."
      }
    },
    "version": 1
  }
}